{
  "contractName": "Bank",
  "abi": [
    {
      "constant": true,
      "inputs": [
        {
          "internalType": "uint256",
          "name": "",
          "type": "uint256"
        }
      ],
      "name": "accounts",
      "outputs": [
        {
          "internalType": "string",
          "name": "cname",
          "type": "string"
        },
        {
          "internalType": "string",
          "name": "aadhaar",
          "type": "string"
        },
        {
          "internalType": "string",
          "name": "homeaddress",
          "type": "string"
        },
        {
          "internalType": "string",
          "name": "typeofAccount",
          "type": "string"
        },
        {
          "internalType": "string",
          "name": "password",
          "type": "string"
        },
        {
          "internalType": "uint256",
          "name": "account_balance",
          "type": "uint256"
        },
        {
          "internalType": "uint256",
          "name": "created",
          "type": "uint256"
        },
        {
          "internalType": "uint256",
          "name": "request_count",
          "type": "uint256"
        },
        {
          "internalType": "uint256",
          "name": "transaction_count",
          "type": "uint256"
        }
      ],
      "payable": false,
      "stateMutability": "view",
      "type": "function"
    },
    {
      "constant": false,
      "inputs": [
        {
          "internalType": "uint256",
          "name": "account",
          "type": "uint256"
        },
        {
          "internalType": "string",
          "name": "cname",
          "type": "string"
        },
        {
          "internalType": "string",
          "name": "aadhaar",
          "type": "string"
        },
        {
          "internalType": "string",
          "name": "homeaddress",
          "type": "string"
        },
        {
          "internalType": "string",
          "name": "typeofAccount",
          "type": "string"
        },
        {
          "internalType": "string",
          "name": "password",
          "type": "string"
        }
      ],
      "name": "newUser",
      "outputs": [],
      "payable": false,
      "stateMutability": "nonpayable",
      "type": "function"
    },
    {
      "constant": true,
      "inputs": [
        {
          "internalType": "uint256",
          "name": "account",
          "type": "uint256"
        },
        {
          "internalType": "string",
          "name": "password",
          "type": "string"
        }
      ],
      "name": "loginAccount",
      "outputs": [
        {
          "internalType": "string",
          "name": "",
          "type": "string"
        }
      ],
      "payable": false,
      "stateMutability": "view",
      "type": "function"
    },
    {
      "constant": true,
      "inputs": [
        {
          "internalType": "uint256",
          "name": "account",
          "type": "uint256"
        }
      ],
      "name": "viewAccount",
      "outputs": [
        {
          "internalType": "string",
          "name": "",
          "type": "string"
        },
        {
          "internalType": "string",
          "name": "",
          "type": "string"
        },
        {
          "internalType": "string",
          "name": "",
          "type": "string"
        },
        {
          "internalType": "string",
          "name": "",
          "type": "string"
        },
        {
          "internalType": "string",
          "name": "",
          "type": "string"
        },
        {
          "internalType": "uint256",
          "name": "",
          "type": "uint256"
        }
      ],
      "payable": false,
      "stateMutability": "view",
      "type": "function"
    },
    {
      "constant": false,
      "inputs": [
        {
          "internalType": "uint256",
          "name": "account",
          "type": "uint256"
        },
        {
          "internalType": "uint256",
          "name": "recipient",
          "type": "uint256"
        },
        {
          "internalType": "uint256",
          "name": "value",
          "type": "uint256"
        }
      ],
      "name": "sendMoney",
      "outputs": [],
      "payable": false,
      "stateMutability": "nonpayable",
      "type": "function"
    },
    {
      "constant": false,
      "inputs": [
        {
          "internalType": "uint256",
          "name": "account",
          "type": "uint256"
        },
        {
          "internalType": "uint256",
          "name": "recipient",
          "type": "uint256"
        },
        {
          "internalType": "uint256",
          "name": "value",
          "type": "uint256"
        }
      ],
      "name": "requestMoney",
      "outputs": [],
      "payable": false,
      "stateMutability": "nonpayable",
      "type": "function"
    },
    {
      "constant": true,
      "inputs": [
        {
          "internalType": "uint256",
          "name": "account",
          "type": "uint256"
        }
      ],
      "name": "getBalance",
      "outputs": [
        {
          "internalType": "uint256",
          "name": "",
          "type": "uint256"
        }
      ],
      "payable": false,
      "stateMutability": "view",
      "type": "function"
    },
    {
      "constant": true,
      "inputs": [
        {
          "internalType": "uint256",
          "name": "account",
          "type": "uint256"
        },
        {
          "internalType": "uint256",
          "name": "index",
          "type": "uint256"
        }
      ],
      "name": "getSender",
      "outputs": [
        {
          "internalType": "uint256",
          "name": "",
          "type": "uint256"
        }
      ],
      "payable": false,
      "stateMutability": "view",
      "type": "function"
    },
    {
      "constant": true,
      "inputs": [
        {
          "internalType": "uint256",
          "name": "account",
          "type": "uint256"
        },
        {
          "internalType": "uint256",
          "name": "index",
          "type": "uint256"
        }
      ],
      "name": "getRecipient",
      "outputs": [
        {
          "internalType": "uint256",
          "name": "",
          "type": "uint256"
        }
      ],
      "payable": false,
      "stateMutability": "view",
      "type": "function"
    },
    {
      "constant": true,
      "inputs": [
        {
          "internalType": "uint256",
          "name": "account",
          "type": "uint256"
        },
        {
          "internalType": "uint256",
          "name": "index",
          "type": "uint256"
        }
      ],
      "name": "getAmount",
      "outputs": [
        {
          "internalType": "uint256",
          "name": "",
          "type": "uint256"
        }
      ],
      "payable": false,
      "stateMutability": "view",
      "type": "function"
    },
    {
      "constant": true,
      "inputs": [
        {
          "internalType": "uint256",
          "name": "account",
          "type": "uint256"
        },
        {
          "internalType": "uint256",
          "name": "index",
          "type": "uint256"
        }
      ],
      "name": "getRole",
      "outputs": [
        {
          "internalType": "string",
          "name": "",
          "type": "string"
        }
      ],
      "payable": false,
      "stateMutability": "view",
      "type": "function"
    },
    {
      "constant": true,
      "inputs": [
        {
          "internalType": "uint256",
          "name": "account",
          "type": "uint256"
        },
        {
          "internalType": "uint256",
          "name": "index",
          "type": "uint256"
        }
      ],
      "name": "getRequestOwner",
      "outputs": [
        {
          "internalType": "uint256",
          "name": "",
          "type": "uint256"
        }
      ],
      "payable": false,
      "stateMutability": "view",
      "type": "function"
    },
    {
      "constant": true,
      "inputs": [
        {
          "internalType": "uint256",
          "name": "account",
          "type": "uint256"
        },
        {
          "internalType": "uint256",
          "name": "index",
          "type": "uint256"
        }
      ],
      "name": "getRequestAmount",
      "outputs": [
        {
          "internalType": "uint256",
          "name": "",
          "type": "uint256"
        }
      ],
      "payable": false,
      "stateMutability": "view",
      "type": "function"
    }
  ],
  "bytecode": "0x608060405234801561001057600080fd5b5061189d806100206000396000f3fe608060405234801561001057600080fd5b50600436106100cf5760003560e01c80634ca989971161008c5780639cf42bc6116100665780639cf42bc6146105c2578063d3206097146105e5578063f2a40db814610608578063f8e88c9114610854576100cf565b80634ca98997146102bd5780636f6ca281146102e05780638486ebcb1461059f576100cf565b806316b621d6146100d45780631e010439146101095780631f038e491461012657806323e67380146101515780632b57b0c61461017a57806336a31de51461029a575b600080fd5b6100f7600480360360408110156100ea57600080fd5b5080359060200135610a88565b60408051918252519081900360200190f35b6100f76004803603602081101561011f57600080fd5b5035610ac0565b61014f6004803603606081101561013c57600080fd5b5080359060208101359060400135610ad5565b005b61014f6004803603606081101561016757600080fd5b5080359060208101359060400135610ca5565b6102256004803603604081101561019057600080fd5b81359190810190604081016020820135600160201b8111156101b157600080fd5b8201836020820111156101c357600080fd5b803590602001918460018302840111600160201b831117156101e457600080fd5b91908080601f016020809104026020016040519081016040528093929190818152602001838380828437600092019190915250929550610d3b945050505050565b6040805160208082528351818301528351919283929083019185019080838360005b8381101561025f578181015183820152602001610247565b50505050905090810190601f16801561028c5780820380516001836020036101000a031916815260200191505b509250505060405180910390f35b6100f7600480360360408110156102b057600080fd5b5080359060200135610e6b565b6100f7600480360360408110156102d357600080fd5b5080359060200135610ea2565b61014f600480360360c08110156102f657600080fd5b81359190810190604081016020820135600160201b81111561031757600080fd5b82018360208201111561032957600080fd5b803590602001918460018302840111600160201b8311171561034a57600080fd5b91908080601f0160208091040260200160405190810160405280939291908181526020018383808284376000920191909152509295949360208101935035915050600160201b81111561039c57600080fd5b8201836020820111156103ae57600080fd5b803590602001918460018302840111600160201b831117156103cf57600080fd5b91908080601f0160208091040260200160405190810160405280939291908181526020018383808284376000920191909152509295949360208101935035915050600160201b81111561042157600080fd5b82018360208201111561043357600080fd5b803590602001918460018302840111600160201b8311171561045457600080fd5b91908080601f0160208091040260200160405190810160405280939291908181526020018383808284376000920191909152509295949360208101935035915050600160201b8111156104a657600080fd5b8201836020820111156104b857600080fd5b803590602001918460018302840111600160201b831117156104d957600080fd5b91908080601f0160208091040260200160405190810160405280939291908181526020018383808284376000920191909152509295949360208101935035915050600160201b81111561052b57600080fd5b82018360208201111561053d57600080fd5b803590602001918460018302840111600160201b8311171561055e57600080fd5b91908080601f016020809104026020016040519081016040528093929190818152602001838380828437600092019190915250929550610ed9945050505050565b6100f7600480360360408110156105b557600080fd5b508035906020013561100c565b610225600480360360408110156105d857600080fd5b5080359060200135611043565b6100f7600480360360408110156105fb57600080fd5b5080359060200135611108565b6106256004803603602081101561061e57600080fd5b503561113f565b6040518080602001806020018060200180602001806020018a815260200189815260200188815260200187815260200186810386528f818151815260200191508051906020019080838360005b8381101561068a578181015183820152602001610672565b50505050905090810190601f1680156106b75780820380516001836020036101000a031916815260200191505b5086810385528e818151815260200191508051906020019080838360005b838110156106ed5781810151838201526020016106d5565b50505050905090810190601f16801561071a5780820380516001836020036101000a031916815260200191505b5086810384528d5181528d516020918201918f019080838360005b8381101561074d578181015183820152602001610735565b50505050905090810190601f16801561077a5780820380516001836020036101000a031916815260200191505b5086810383528c5181528c516020918201918e019080838360005b838110156107ad578181015183820152602001610795565b50505050905090810190601f1680156107da5780820380516001836020036101000a031916815260200191505b5086810382528b5181528b516020918201918d019080838360005b8381101561080d5781810151838201526020016107f5565b50505050905090810190601f16801561083a5780820380516001836020036101000a031916815260200191505b509e50505050505050505050505050505060405180910390f35b6108716004803603602081101561086a57600080fd5b5035611445565b60405180806020018060200180602001806020018060200187815260200186810386528c818151815260200191508051906020019080838360005b838110156108c45781810151838201526020016108ac565b50505050905090810190601f1680156108f15780820380516001836020036101000a031916815260200191505b5086810385528b5181528b516020918201918d019080838360005b8381101561092457818101518382015260200161090c565b50505050905090810190601f1680156109515780820380516001836020036101000a031916815260200191505b5086810384528a5181528a516020918201918c019080838360005b8381101561098457818101518382015260200161096c565b50505050905090810190601f1680156109b15780820380516001836020036101000a031916815260200191505b5086810383528951815289516020918201918b019080838360005b838110156109e45781810151838201526020016109cc565b50505050905090810190601f168015610a115780820380516001836020036101000a031916815260200191505b5086810382528851815288516020918201918a019080838360005b83811015610a44578181015183820152602001610a2c565b50505050905090810190601f168015610a715780820380516001836020036101000a031916815260200191505b509b50505050505050505050505060405180910390f35b6000828152602081905260408120600901805483908110610aa557fe5b90600052602060002090600202016001015490505b92915050565b60009081526020819052604090206005015490565b600083815260208190526040902060060154600114610af357600080fd5b600082815260208190526040902060060154600114610b1157600080fd5b600083815260208190526040902060050154811115610b2f57600080fd5b600083815260208181526040808320600580820180548790039055868552828520018054860190558151608081018352878152808401878152818401878152845180860190955260048086526314d95b9d60e21b8688015260608401958652600a90940180546001818101808455928a5298889020855191909602909501948555915196840196909655945160028301559151805192939192610bd892600385019201906117cd565b505050600083815260208181526040808320815160808101835288815280840188815281840188815284518086019095526008855267149958d95a5d995960c21b8587015260608301948552600a90930180546001818101808455928952978790208451600490920201908155915196820196909655915160028301559151805194955091939092610c719260038501929101906117cd565b5050506000938452505060208290526040808320600890810180546001908101909155928452922090910180549091019055565b600083815260208190526040902060060154600114610cc357600080fd5b600082815260208190526040902060060154600114610ce157600080fd5b60008281526020818152604080832081518083019092529581528082019384526009860180546001818101835591855283852092516002909102909201918255935190840155928152909152600790910180549091019055565b600082815260208190526040902060060154606090610d7257506040805180820190915260018152600360fc1b6020820152610aba565b6000838152602081815260409182902060040180548351601f6002600019610100600186161502019093169290920491820184900484028101840190945280845260609392830182828015610e085780601f10610ddd57610100808354040283529160200191610e08565b820191906000526020600020905b815481529060010190602001808311610deb57829003601f168201915b5050505050905060608390506060604051806040016040528060018152602001600360fc1b8152509050818051906020012083805190602001201415610e6257506040805180820190915260018152603160f81b60208201525b95945050505050565b6000828152602081905260408120600901805483908110610e8857fe5b906000526020600020906002020160000154905092915050565b6000828152602081905260408120600a01805483908110610ebf57fe5b906000526020600020906004020160020154905092915050565b60008681526020819052604090206006015460011415610f39576040805162461bcd60e51b81526020600482015260166024820152754163636f756e7420416c72656164792045786973747360501b604482015290519081900360640190fd5b6000868152602081815260409091208651610f56928801906117cd565b506000868152602081815260409091208551610f7a926001909201918701906117cd565b506000868152602081815260409091208451610f9e926002909201918601906117cd565b506000868152602081815260409091208351610fc2926003909201918501906117cd565b506000868152602081815260409091208251610fe6926004909201918401906117cd565b50505060009384525050506020819052604090206103e860058201556001600690910155565b6000828152602081905260408120600a0180548390811061102957fe5b906000526020600020906004020160010154905092915050565b6060600080848152602001908152602001600020600a01828154811061106557fe5b6000918252602091829020600360049092020101805460408051601f60026000196101006001871615020190941693909304928301859004850281018501909152818152928301828280156110fb5780601f106110d0576101008083540402835291602001916110fb565b820191906000526020600020905b8154815290600101906020018083116110de57829003601f168201915b5050505050905092915050565b6000828152602081905260408120600a0180548390811061112557fe5b906000526020600020906004020160000154905092915050565b6000602081815291815260409081902080548251601f6002600019610100600186161502019093169290920491820185900485028101850190935280835290928391908301828280156111d35780601f106111a8576101008083540402835291602001916111d3565b820191906000526020600020905b8154815290600101906020018083116111b657829003601f168201915b505050505090806001018054600181600116156101000203166002900480601f0160208091040260200160405190810160405280929190818152602001828054600181600116156101000203166002900480156112715780601f1061124657610100808354040283529160200191611271565b820191906000526020600020905b81548152906001019060200180831161125457829003601f168201915b50505060028085018054604080516020601f60001961010060018716150201909416959095049283018590048502810185019091528181529596959450909250908301828280156113035780601f106112d857610100808354040283529160200191611303565b820191906000526020600020905b8154815290600101906020018083116112e657829003601f168201915b5050505060038301805460408051602060026001851615610100026000190190941693909304601f81018490048402820184019092528181529495949350908301828280156113935780601f1061136857610100808354040283529160200191611393565b820191906000526020600020905b81548152906001019060200180831161137657829003601f168201915b5050505060048301805460408051602060026001851615610100026000190190941693909304601f81018490048402820184019092528181529495949350908301828280156114235780601f106113f857610100808354040283529160200191611423565b820191906000526020600020905b81548152906001019060200180831161140657829003601f168201915b5050505050908060050154908060060154908060070154908060080154905089565b6060806060806060600080600088815260200190815260200160002060060154600014156114b1576040805162461bcd60e51b81526020600482015260146024820152734e6f2044657461696c7320415661696c61626c6560601b604482015290519081900360640190fd5b600087815260208190526040902060060154600114156117c4576000878152602081815260409182902060058101548154845160026001808416156101000260001901909316819004601f810187900487028301870190975286825293959186019493860193600387019360048801939092918891908301828280156115785780601f1061154d57610100808354040283529160200191611578565b820191906000526020600020905b81548152906001019060200180831161155b57829003601f168201915b5050885460408051602060026001851615610100026000190190941693909304601f8101849004840282018401909252818152959b508a9450925084019050828280156116065780601f106115db57610100808354040283529160200191611606565b820191906000526020600020905b8154815290600101906020018083116115e957829003601f168201915b5050875460408051602060026001851615610100026000190190941693909304601f8101849004840282018401909252818152959a50899450925084019050828280156116945780601f1061166957610100808354040283529160200191611694565b820191906000526020600020905b81548152906001019060200180831161167757829003601f168201915b5050865460408051602060026001851615610100026000190190941693909304601f8101849004840282018401909252818152959950889450925084019050828280156117225780601f106116f757610100808354040283529160200191611722565b820191906000526020600020905b81548152906001019060200180831161170557829003601f168201915b5050855460408051602060026001851615610100026000190190941693909304601f8101849004840282018401909252818152959850879450925084019050828280156117b05780601f10611785576101008083540402835291602001916117b0565b820191906000526020600020905b81548152906001019060200180831161179357829003601f168201915b505050505091509550955095509550955095505b91939550919395565b828054600181600116156101000203166002900490600052602060002090601f016020900481019282601f1061180e57805160ff191683800117855561183b565b8280016001018555821561183b579182015b8281111561183b578251825591602001919060010190611820565b5061184792915061184b565b5090565b61186591905b808211156118475760008155600101611851565b9056fea265627a7a723158200d4085cdc2dbf5baa6e2337731108ecee091011b49e38604eb248bf021e1833864736f6c63430005100032",
  "source": "pragma solidity >=0.4.18 <0.9.0;\r\n\r\ncontract Bank{\r\n\r\n  struct Request{\r\n    uint from;\r\n    uint amount;\r\n  }\r\n  struct Transaction{\r\n    uint sender;\r\n    uint recipient;\r\n    uint amount;\r\n    string role;\r\n  }\r\n  struct User{\r\n\r\n    string cname;\r\n    string aadhaar;\r\n    string homeaddress;\r\n    string typeofAccount;\r\n    string password;\r\n    uint account_balance;\r\n    uint created;\r\n    uint request_count;\r\n    uint transaction_count;\r\n    Request [] requests; \r\n    Transaction [] transactions;\r\n    \r\n  }\r\n\r\n  mapping(uint => User) public accounts;\r\n\r\n  function newUser(uint account,string memory cname, string memory aadhaar,string memory homeaddress, string memory typeofAccount, string memory password)  public {\r\n\r\n    if(accounts[account].created == 1){\r\n      revert('Account Already Exists');\r\n    }\r\n    \r\n    accounts[account].cname = cname;\r\n    accounts[account].aadhaar = aadhaar;\r\n    accounts[account].homeaddress=homeaddress;\r\n    accounts[account].typeofAccount=typeofAccount;\r\n    accounts[account].password = password;\r\n    accounts[account].account_balance = 1000;\r\n    accounts[account].created = 1;\r\n\r\n  }\r\n\r\n  function loginAccount(uint account,string memory password) view public returns (string memory) {\r\n\r\n    if(accounts[account].created == 0){\r\n      return \"0\";\r\n    }\r\n\r\n    string memory a = accounts[account].password;\r\n    string memory b = password;\r\n    string memory check = \"0\";\r\n    if(keccak256(bytes(a)) == keccak256(bytes(b))){\r\n      check = \"1\";\r\n    }\r\n    return check;\r\n  }\r\n\r\n  function viewAccount(uint account) view public returns (string memory,string memory,string memory,string memory,string memory, uint) {\r\n\r\n    if(accounts[account].created == 0){\r\n      revert('No Details AVailable');\r\n    }\r\n\r\n    if(accounts[account].created==1) {\r\n      return(accounts[account].cname,accounts[account].aadhaar,accounts[account].homeaddress,accounts[account].typeofAccount,accounts[account].password,accounts[account].account_balance);\r\n    }\r\n  }\r\n\r\n  \r\n\r\n  function sendMoney(uint account,uint recipient,uint value) public {\r\n    require((accounts[account].created == 1));\r\n    require((accounts[recipient].created == 1)); \r\n    require(accounts[account].account_balance >= value);\r\n\r\n    accounts[account].account_balance -= value;\r\n    accounts[recipient].account_balance += value;\r\n\r\n    accounts[account].transactions.push(Transaction(account,recipient,value,\"Sent\"));\r\n    accounts[recipient].transactions.push(Transaction(account,recipient,value,\"Received\"));\r\n\r\n    accounts[account].transaction_count += 1;\r\n    accounts[recipient].transaction_count += 1;\r\n\r\n  }\r\n\r\n  function requestMoney(uint account,uint recipient,uint value) public {\r\n    require((accounts[account].created == 1));\r\n    require((accounts[recipient].created == 1));\r\n\r\n \r\n    accounts[recipient].requests.push(Request(account,value));\r\n\r\n    accounts[recipient].request_count += 1;\r\n\r\n  } \r\n  function getBalance(uint account) view public returns(uint){\r\n      return accounts[account].account_balance;\r\n  }\r\n\r\n\r\n  function getSender(uint account,uint index) view public returns (uint){\r\n    return accounts[account].transactions[index].sender;\r\n  }\r\n\r\n  function getRecipient(uint account,uint index) view public returns (uint){\r\n    return accounts[account].transactions[index].recipient;\r\n  }\r\n\r\n  function getAmount(uint account,uint index) view public returns (uint){\r\n    return accounts[account].transactions[index].amount;\r\n  }\r\n\r\n  function getRole(uint account,uint index) view public returns (string memory){\r\n    return accounts[account].transactions[index].role;\r\n  }\r\n   \r\n  function getRequestOwner(uint account,uint index) view public returns (uint){\r\n    return accounts[account].requests[index].from;\r\n  }\r\n\r\n  function getRequestAmount(uint account,uint index) view public returns (uint){\r\n    return accounts[account].requests[index].amount;\r\n  }\r\n\r\n  \r\n\r\n}",
  "sourcePath": "C:/Users/maddy/documents/ml-projects-urcet/blockchain-money-transfer/DappWallet/contracts/Bank.sol",
  "compiler": {
    "name": "solc",
    "version": "0.5.16+commit.9c3226ce.Emscripten.clang"
  },
  "schemaVersion": "3.2.5",
  "updatedAt": "2021-07-04T13:17:49.642Z",
  "networkType": "ethereum",
  "devdoc": {
    "methods": {}
  },
  "userdoc": {
    "methods": {}
  }
}